:020000040000FA
:040000008131B82969
:080008008131AF2982070934A0
:100010000234433400340234013400348034323446
:10002000093404340034003401340234023401341D
:1000300000340534243400341034013404342434BE
:1000400002340234053424340634003401340534D7
:100050002434013400340134073405348234033449
:1000600008340034023409340434013400340234D6
:100070000A340034003400340734053403340234C5
:10008000083400340034073405348334023408342F
:10009000003400348207363403344D34003469347C
:1000A000003463340034723400346F340034633409
:1000B000003468340034693400347034003420343F
:1000C000003454340034653400346334003468340C
:1000D00000346E3400346F3400346C3400346F34C8
:1000E000003467340034793400342C340034203444
:1000F0000034493400346E340034633400342E3418
:10010000003482071E3403344A340034413400344E
:100110004C3400344C34003449340034423400341C
:1001200020340034533400346534003472340034E5
:1001300069340034613400346C3400342E340034BB
:1001400082071234013400340234023400340034A3
:100150000834D83404340A3400340134003401340F
:1001600002340034013482072134503449344E348F
:10017000473482072134503457344D344334820796
:100180002134503457344D344634820721345034AE
:1001900057344D34443482072134503457344D346D
:1001A0004534820721344934493443344934820781
:1001B0002134493449344334573482072134493493
:1001C0004934433452348207213444344134433473
:1001D000493482072134443441344334453482075E
:1001E0002134443441344334443482072134443488
:1001F0004134433457348207213450345934523413
:100200008207213450345934573482072134503412
:1002100059344434820721345034493452348207EB
:10022000213450344934573482072134503449340E
:10023000503482072134503449344D348207043419
:1002400003340934043482072134503449344434AB
:1002500082072134523445345334820721345334D5
:1002600050344934493482072134533450344934AA
:10027000573482072134533450344934523482077E
:1002800021344134443443344934820721344134E5
:1002900044344334453482072134413444344334B4
:1002A0004434820721344134443443345234820785
:1002B00021344134443443344334820721345034AC
:1002C00057344D3449341030E0000310CF0DD00DB9
:1002D0000310CB0DCC0D031C71294D08CF074E0820
:1002E000D03DE00B652908002030E000CF01D001AF
:1002F000D101D2010310D70DD80DD90DDA0D03109D
:10030000CB0DCC0DCD0DCE0DCF0DD00DD10DD20D11
:1003100052085602031D962951085502031D9629BD
:1003200050085402031D96294F08530203199A29B5
:100330000318A9295308CF025408031C540FD002F4
:100340005508031C550FD1025608031C560FD20244
:100350005714E00B7A2908008A0062088200200006
:100360004808DB004908DC004A08DD008631762EAB
:10037000FC3021009900951323008C018E0121008F
:100380009D019E019F0104302200910092010430E2
:10039000930094012000EE30C8004930C9001530A8
:1003A000CA008131CA0BD2298131C90BCF298131D1
:1003B000C80BCD29000000002300C501C601C701FC
:1003C00082319A2A2000A41B08002300440841021D
:1003D0000319EE290318EE294108C400420844021B
:1003E000B70043020319F8290318F8294308B70096
:1003F000203042072000C8000030CA0001304A3DCA
:10040000C9004808A6004908A700230037082000B3
:10041000A5008231241F0F2A0830A400112A483079
:10042000A400A41723003708C207420844020800AA
:100430000830C300C201C401C1012000241381316E
:10044000E229182A2300C0002200A000083023005F
:10045000C300C2010130C4000130C10020002413D8
:100460008131E2293D00191619159914991540306A
:100470002000AC000830A900B030AA00AB018030E9
:10048000A8003D001A161A159A149A15403020003B
:10049000B4000830B100C030B200B3018030B00009
:1004A0003D001B161B159B149B1540302000BC0003
:1004B0000830B900D030BA00BB018030B800080065
:1004C00020002015A017080008302000A100A0304F
:1004D000A200A301033023004602031D742A0C303E
:1004E000FD002000A401762A4830FD007D08200090
:1004F000A000A0170800F8000310780DFB000310FF
:10050000FB0D0310FB0D7B0AFA00203084008501EF
:100510007A088407790880002030840085017B08F0
:10052000840780012030840085017B0884078030A7
:1005300080000800C801260051102000EF01F001E2
:10054000F101F2015030F3008C31D82C233020001F
:100550004102031DAF2A06302300C600212A2030A5
:100560004102031DB72A02302300C60008002130D3
:100570004102031DEC2A50302300C1000730C400A3
:1005800020302000E6000130E70023004408B900D5
:10059000B801DF2A68308400850138088407000824
:1005A000BA002000660884006708850023003A0826
:1005B00020008000E60A0319E70A2300B80A380879
:1005C0003902031DCA2A0830C3000330C600C20125
:1005D000200024138131E22922304102031DF82A30
:1005E00006302300C6002122200042082300C80054
:1005F00008002030200041028331031D182BFE012A
:10060000A030840085017E0884070008C800683097
:10061000840085017E08840748088000FE0A0730B0
:100620007E02031D002B06302300C6008231212AE2
:100630000800213020004102031D212B053023003A
:10064000C6000800AD0003302D02031D5D2B2E08EF
:100650002000E60023002F082000E70023003008D8
:10066000B400B501592B710AB100503031020319A1
:10067000B101310872020319582B2000660884006A
:100680006708850000082300B6002000E60A031969
:10069000E70A23003608B300B2002030840002309D
:1006A000850071088407320880003108F100F303E7
:1006B000B50A35083402031D332B08002000BC1B8B
:1006C00008006F087002031D6B2B2600511C0800E8
:1006D0002300A0017B2B6F0870020319762B0318EF
:1006E000762B70086F022300A0007B2B700923007B
:1006F000A0002130A007083020020319832B031C1F
:10070000832B0830A0002008A300A1019E2B7008B5
:100710002107A200C9308400013085002208840727
:1007200000082000C800D83084008501230021087B
:1007300084072000480880002300A10A2108230222
:10074000031D872BD8302000BE00BF0123002008E6
:100750002000BD003C1FAF2B0830BC00B12B48303F
:10076000BC00BC17700823002007A4001F3024021F
:100770000319BD2B031CBD2BA4012408F000083075
:10078000200226005110031951140800FC00033008
:100790007C02031DCC2B5E2B08002700A00020004C
:1007A0006F0A2700A600203026020319A601C930CF
:1007B00084000130850020006F088407270020088E
:1007C000800026082000EF0008002030840002305E
:1007D0008500720884070008EA00F30A720AEC0038
:1007E00050306C020319EC016C08F2006A08080032
:1007F000720871026A10031D6A1484316A18032C8E
:1008000020004810080020004814080083315E23AF
:1008100008307302843103190F2C031C172C20009D
:10082000B81B172C0830F900033082317B2A0800EE
:100830002000E801C230E9000130EA00EB01EC01E0
:100840000830EE00ED01080006302000410285313D
:10085000031D212D43082300BB0020004208230074
:10086000BC00C4013B038431031D5C2C1230C40066
:1008700020302000E6000130E70023004408BE00DD
:10088000BD01552C3D088031A0202300BF00200071
:10089000660884006708850023003F082000800068
:1008A000E60A0319E70A2300BD0A3D083E02843127
:1008B000031D422C8531082D02303B02031D862C7E
:1008C0004330C40020302000E6000130E700230060
:1008D0004408BE00BD017F2C3D0880310620230066
:1008E000BF002000660884006708850023003F08D9
:1008F00020008000E60A0319E70A2300BD0A3D082C
:100900003E028431031D6C2C8531082D03303B02DF
:100910008531031D062D3C088431031DB32C0430A2
:10092000C40020302000E6000130E7002300440826
:10093000BE00BD01AE2C3D0881311E212300BF0049
:100940002000660884006708850023003F08200017
:100950008000E60A0319E70A2300BD0A3D083E02AB
:100960008431031D9B2C3C03031DDA2C3630C4005C
:1009700020302000E6000130E70023004408BE00DC
:10098000BD01D52C3D0880314A202300BF00200046
:10099000660884006708850023003F082000800067
:1009A000E60A0319E70A2300BD0A3D083E02843126
:1009B000031DC22C02303C028531031D082D1E3060
:1009C000C40020302000E6000130E7002300440886
:1009D000BE00BD018431FF2C3D0880318120230001
:1009E000BF002000660884006708850023003F08D8
:1009F00020008000E60A0319E70A2300BD0A3D082B
:100A00003E028431031DEC2C8531082D22303B023F
:100A1000440803191F2D0830C30020004708031D98
:100A2000152D46082300C100182D50302300C100A9
:100A30000330C600C201200024138131E229823133
:100A4000602A4103031D2F2D08302300C300C2017B
:100A5000C401C1012000A41324138131E22905300F
:100A60004102031D3E2D42082300C7000130C5008E
:100A70008231212206302300C600080009304102DD
:100A8000031D492D06302300C60082312122823108
:100A9000322A0A304102031D532D03302300C600C1
:100AA00001308231222A4108031D592D0030823144
:100AB000222A080003100F0C2300A5000310A50C28
:100AC0000310A50C3D000F1D702D03102000240CF9
:100AD0002300A7000310A70C0F302705A6007A2DCE
:100AE00003102000200C2300A7000310A70C0F30D8
:100AF0002705A60025088631031D112E0D3026027C
:100B00008531031DB62DA801A03084008501280879
:100B1000840700082000C8004030840085012300BD
:100B2000280884072000480880002300A80A08300D
:100B30002802031D842D3D000E1282316422603094
:100B4000200040052300A70027088531031DAA2D9A
:100B50008431242C20302702031DB02D8231A62A97
:100B6000403027028631031D752E08000930260209
:100B7000031DDA2D03304602031DC02D8131E22909
:100B800006304602031DCF2DC60145038631031DE5
:100B9000752E47083D0096002300C501080005306A
:100BA00046020319080004304602031DD92D833183
:100BB000192B080002302602031DF12D03304602D6
:100BC000031DE42D8131E22904304602031DEA2D84
:100BD0008331192B063046028631031D752EC6015E
:100BE000080026038631031D752E05304602853127
:100BF000031DFD2DC6018231642A02304602863172
:100C0000031D062E8231F9228231642A0330460206
:100C1000031D0F2E823164222300C6010800823199
:100C2000642A3D000F1D3E2E03102300250DA80051
:100C30000310A80D0310A80D0430A807280AA70068
:100C4000203084008501270884070008A9000230AD
:100C50002807A700203084008501270884070008A2
:100C6000AA0003302807A700203084008501270848
:100C700084070008AB0025088331C62B031023002E
:100C8000250DA8000310A80D0310A80D280AA70021
:100C9000203084008501270884070008A90020303F
:100CA00084008501280884070008AA00AA1B752E65
:100CB00002302807A7002030840085012708840718
:100CC0000008AB0003302807A7002030840085010E
:100CD000270884070008AC002B08AE002C08AF00E2
:100CE0002908B00025088331222B08007610121D38
:100CF0007C2E210012197614761CC92E20001211A8
:100D0000F7013D00901D882E85315A253D00901138
:100D1000F70A043077028631031D812E101CB82E8D
:100D2000930190012300C7013D0099019A019B01A5
:100D30009C019D019E019F0116309800901DA22EDE
:100D400090119E2E2300C601C5013D000E120830F1
:100D50002000A500A830A600A701A4010830A1002A
:100D6000A030A200A3010C30A000A0173D0010107D
:100D70008631901A901210191011101A1012101FAB
:100D8000C52E843106243D0010138631901CC92ED7
:100D9000901020005B08C8005C08C9005D08CA000C
:100DA00009001217921612129215121192141214AF
:100DB000210012150B178B17080008003D008E014B
:100DC00014309100D126843118243D0090018E0109
:100DD000863121001A1BED2EE82E3D008E150800ED
:100DE000E800230048082600EA006A080319080002
:100DF00020006F0A2600EC0020306C0287310319B6
:100E0000EC016C087002031D062F012F6808833166
:100E1000CD2B230048082600E6006608031D132F8B
:100E200020004810292F8331F823873120004818EB
:100E30001C2F2600E8101E2F2600E814E818232F88
:100E400020004810292F8331E5232600E4002000EC
:100E5000481426006408080009272600DE00080060
:100E60002600E6008631F02EE4006130640268104E
:100E7000031D031868147A306402E810031D031C74
:100E8000E81468156818E81C6811681D4B2F20309D
:100E90006402E600080064080800B300341430302F
:100EA0003302B410031D0318B41439303302341163
:100EB000031D031C3415B415B418341DB411B41D2E
:100EC000642F3030B3027A2F413033023412031DC5
:100ED0000318341646303302B412031D031CB41633
:100EE0003417341AB41E3413341F792F3730B30239
:100EF0007A2F341034187F2F20004810812F2000C3
:100F00004814270033080800E6000A306602031977
:100F10008B2F031C8F2F37306607E8000800303016
:100F20006607E8000800DE00621050302300690206
:100F30000319AF2F0318AF2F26005E0834272000B7
:100F4000E100A03084000230850023006908840796
:100F50002000610880002300E90A2600621487311E
:100F600026006218B62F2000481008002000481400
:100F70000800EC0027002010283023006B02031922
:100F8000D02F0318D02F20308400033085006B0849
:100F9000840726006C0880002300EB0A2700201439
:100FA00027002018D62F20004810080020004814E1
:100FB0000800341023006A0869020319EE2F031C8D
:100FC000EE2FA0308400023085006A0884070008F4
:100FD0002700B3002300EA0A27003414270034183E
:100FE000F42F20004810F62F200048142700330863
:100FF00008002600681023006C086B028831031972
:101000001028031C102820308400033085006C0851
:10101000840700082600E6002300EC0A2600681476
:1010200026006818162820004810182820004814A8
:1010300026006608080023006A0869022600DE0010
:1010400008002300E901EA0108002300EB01EC019C
:101050000800E8012300EA01FF017F0826005F0283
:10106000031D342868085E026A1003193928031822
:101070006A1423006A0869022600EA10031942284C
:101080000318EA146A156A18EA1C6A116A1D6F28A7
:10109000A03084000230850023006A08840700081D
:1010A0002000C8002600640868072000E200003025
:1010B000CA002600650820004A3DE3008131AC21CA
:1010C0002000C900480849028831031D6A2826000B
:1010D000E80A6C282600E8012300EA0A2C286808A0
:1010E0005E022000C80026005F0820004804260099
:1010F0006A1203196A166A1A80282000481008002C
:10110000200048140800270031108731D927270014
:10111000AE0088312000481890282700B11092288E
:101120002700B114B11CC9288731D9272700AD0089
:101130008831200048189F2827003111A128270056
:101140003115311DC9282E0887314D272700AE00E3
:10115000883120004818AF282700B111B128270096
:10116000B115B11DC9282D0887314D272700AD00C5
:10117000883120004818BF2827003112C1282700D5
:101180003116311EC9282E0EF039B0002D07A900E6
:1011900031143118CE2820004810D02820004814DF
:1011A0002700290808002600EA006C146A08031DBD
:1011B000DC2823000E14F8286A03031DE22823000C
:1011C0008E14F82802306A02031DE92823000E1548
:1011D000F82803306A02031DF02823008E15F82832
:1011E00006306A02031DF72823000C16F8286C103D
:1011F00026006C18FE282000481008002000481423
:1012000008002600EA006C146A08031D0A2923005E
:101210000E1026296A03031D102923008E1026298B
:1012200002306A02031D172923000E1126290330FC
:101230006A02031D1E2923008E11262906306A0228
:10124000031D252923000C1226296C1026006C187A
:101250002C29200048100800200048140800EA004B
:101260006A08031D3B296C18382921000E1008005C
:1012700021000E1408006A03031D46296C18432937
:1012800021008E10080021008E14080002306A022E
:10129000031D52296C184F2921000E11080021004E
:1012A0000E15080003306A02031D5E296C185B29C5
:1012B00021008E11080021008E15080004306A02FA
:1012C000031D6A296C18672921000E1208002100ED
:1012D0000E16080005306A02031D76296C18732962
:1012E00021008E12080021008E16080006306A02C6
:1012F000031D82296C187F2921000C12080021008F
:101300000C16080007306A02031D8D296C188B2902
:1013100021008C12080021008C160800E8006808E3
:10132000031D9A296A18972922000E10080022002E
:101330000E1408006803031DA5296A18A2292200BB
:101340008E10080022008E14080002306802031D6F
:10135000B1296A18AE2922000E11080022000E15CC
:10136000080003306802031DBD296A18BA2922004B
:101370008E11080022008E15080004306802031D3B
:10138000C9296A18C62922000E12080022000E166A
:10139000080005306802031DD5296A18D2292200E9
:1013A0008E12080022008E16080006306802031D07
:1013B000E1296A18DE2922000C12080022000C160E
:1013C000080007306802031DEC296A18EA29220088
:1013D0008C12080022008C160800641088318320CB
:1013E0002600DE00893120004818F9292600E41083
:1013F000FB292600E4148A31E41C2D2A08305E0201
:1014000003192D2A03182D2A883183202600E20093
:101410008A31200048180F2A2600E411112A2600DC
:10142000E415E41D2D2A62086416031D641262038C
:10143000E4120319E4166413641EE41A6417641FAB
:101440002D2A6203E4130319E4176C10E41B6C14D7
:101450005E0889312F21260064148A316418332AEA
:10146000200048100800200048140800641088314B
:1014700083202600DE008A3120004818422A2600F8
:10148000E410442A2600E414E41C7A2A08305E02A0
:1014900003197A2A03187A2A883183202600E20069
:1014A0008A3120004818572A2600E411592A2600BC
:1014B000E415E41D7A2A6208031D6B2A5E0889314F
:1014C00001218A3120004818682A260064106A2AFF
:1014D000260064147A2A6203031D7A2A5E08883182
:1014E000D3208A3120004818782A260064107A2AEE
:1014F0002600641464187F2A200048100800200089
:1015000048140800883183202600DE008A3120003C
:1015100048188D2A2600E4108F2A2600E41406308D
:101520005E02E4110319E41507305E026412031928
:101530006416E412E41D641AE416E41EE410883113
:1015400083202600E2008A3120004818AA2A2600BB
:10155000E413AC2A2600E417E41FE4106208E51443
:10156000031DE5106203651103196515E511E51CFE
:101570006519E515E51DE410E41CD52A6203641025
:101580000319641406305E02031DCE2A6418CB2AA8
:1015900024000C12CD2A24000C16D52A6418D32A54
:1015A00024008C12D52A24008C162600E418DB2A8D
:1015B00020004810080020004814080064108831FA
:1015C00083202600DE008A3120004818EA2A2600FF
:1015D000E410EC2A2600E4148B31E41C202B0830A4
:1015E0005E020319202B0318202B8831832026004C
:1015F000E2008B3120004818012B2600E4118B31CA
:10160000032B2600E4158B31E41D202B62086416A1
:10161000031D64126203E4120319E4166413641ECA
:10162000E41A6417641F202B6203E4130319E41700
:101630006A10E41B6A145E0889318E212600641446
:101640008B316418262B2000481008002000481415
:101650000800E210883183202600DE008B31200054
:101660004818352B26006211372B26006215621DA3
:10167000402B08305E020319402B0318402BE21464
:10168000E21CE72B5E08031D562B21000E184B2B86
:101690002600E2104D2B2600E21420000E18532BDA
:1016A00026006210552B26006214E72B5E03031DF3
:1016B0006A2B21008E185F2B2600E210612B26007A
:1016C000E21420008E18672B26006210692B26007A
:1016D0006214E72B02305E02031D7F2B21000E19DE
:1016E000742B2600E210762B2600E21420000E193F
:1016F0007C2B260062107E2B26006214E72B033021
:101700005E02031D942B21008E19892B2600E21006
:101710008B2B2600E21420008E19912B26006210DC
:10172000932B26006214E72B04305E02031DA92BC5
:1017300021000E1A9E2B2600E210A02B2600E21498
:1017400020000E1AA62B26006210A82B2600621479
:10175000E72B05305E02031DBE2B21008E1AB32B32
:101760002600E210B52B2600E21420008E1ABB2BB7
:1017700026006210BD2B26006214E72B06305E02A5
:10178000031DD32B21000C1AC82B2600E210CA2BF4
:101790002600E21420000C1AD02B26006210D22B57
:1017A00026006214E72B07305E02031DE72B2100A1
:1017B0008C1ADD2B2600E210DF2B2600E21420001D
:1017C0008C1AE52B26006210E72B260062148C3160
:1017D000E21C0A2C883125208B312600621CFE2B4E
:1017E00001308731B9278B3120004818FA2B2600A9
:1017F000E210FC2B2600E2148C310A2C00308731D9
:10180000B9278C3120004818082C2600E2100A2C39
:101810002600E214E2180F2C2000481008002000D7
:1018200048140800E610883183202600DE008C3141
:10183000200048181E2C26006611202C2600661554
:10184000661D3A2CE20101305E05E400640866146E
:10185000031966106C1066186C14620889312F2108
:1018600003102600DE0CE20A083062028C31031DF0
:10187000232CE614E6183F2C200048100800200016
:1018800048140800E610883183202600DE008C31E1
:10189000200048184E2C26006611502C2600661594
:1018A000661D6A2CE20101305E05E40064086614DE
:1018B000031966106A1066186A14620889318E214D
:1018C00003102600DE0CE20A083062028C31031D90
:1018D000532CE614E6186F2C200048100800200056
:1018E00048140800E21021000E188E1C792C2600E6
:1018F000E21426006211E21C822C21000E1D822CB3
:10190000260062152600E211621D8B2C21008E1D1F
:101910008B2C2600E21526006212E21D942C210079
:101920000E1E942C260062162600E212621E9D2CCA
:1019300021008E1E9D2C2600E21626006213E21E58
:10194000A62C21000C1EA62C260062172600621071
:10195000621FAF2C21008C1EAF2C260062142600C3
:10196000621CD02C3F3020000E052600DE00200037
:101970000C1EBC2C26005E1720008C1EC12C2600DD
:10198000DE178831252026005E088731B9278C3183
:1019900020004818CE2C26006210D02C260062149D
:1019A0006218D52C200048100800200048140800B8
:1019B00001302300ED00EE018E311A2E21000E14AD
:1019C0008E14283024009500203096000A30230021
:1019D0006D026E04031DF12C0B30240092008D313A
:1019E0000F2D04306D026E04031DFB2C1D302400EE
:1019F00092008D310F2D6D036E048D31031D042D6A
:101A00007730240092000F2D6D086E04031D0C2DFD
:101A10007F30240092000F2D773024009200940133
:101A20000800240016142600EC01ED01240016180D
:101A30001C2D270026101E2D2700261410302600EE
:101A40006C022000C800273026006D0220004804E8
:101A50002700A610031DA61426152618A61C26115D
:101A6000261D3D2D2600EC0A0319ED0A2000033047
:101A7000C8008D31C80B3A2D162D0800240016150C
:101A80002600EC01ED0124001619492D270026102F
:101A90004B2D27002614103026006C022000C800B1
:101AA000273026006D02200048042700A610031DE1
:101AB000A61426152618A61C2611261D6A2D2600FA
:101AC000EC0A0319ED0A20000330C8008D31C80B61
:101AD000672D432D0800EC002700271420009111EA
:101AE00026006C08240091002700A001A10120001D
:101AF000911D7D2D2700A7107F2D2700A7141030E2
:101B000020022000C80027302700210220004804BE
:101B100027002711031D2715A715A718271DA71193
:101B2000A71D9C2DA00A0319A10A20000330C8009C
:101B30008D31C80B992D772D103020022000C80060
:101B400027302700210220004804031DAA2D27006A
:101B50002710B42D2400161BB02D27002714B42DF8
:101B600095129516270027102718B92D2000481028
:101B70000800200048140800240096152700A00142
:101B8000A1012400141CC72D2700A710C92D270070
:101B9000A714103020022000C8002730270021029F
:101BA0002000480427002711031D2715A715A71893
:101BB000271DA711A71DE62DA00A0319A10A2000C1
:101BC0000330C8008D31C80BE32DC12D271CEB2D30
:101BD00024009612ED2D2400961616162400161ACF
:101BE000F42D2700A712F62D2700A716103020028B
:101BF0002000C800273027002102200048042700C9
:101C00002713031D2717A717A71A271FA7138E31FE
:101C1000A71F152EA00A0319A10A20000330C8002F
:101C20008E31C80B112E8D31EE2D240011082600A7
:101C3000EC0008002600D1108F317B2F6210883114
:101C400083202600DE008E31200048182A2E260030
:101C5000E2102C2E2600E214E21C7A2E5E08621599
:101C6000031D62115E03E2110319E2156212621D87
:101C7000E219621604305E02E2120319E2166213E0
:101C8000621EE21A62170A305E02E2130319E217BB
:101C90006310621FE21B6314631C7A2E5E0823002C
:101CA000ED00EE0126006C14003089312F21003048
:101CB000893101218E3120004818612E26006210E2
:101CC000632E260062146C14013089312F210130FB
:101CD000893101218E3120004818712E26006311B0
:101CE000732E26006315631D62108C31DE242600DE
:101CF000D11462148E316218802E20004810080022
:101D00002000481408008D311125883183202600D9
:101D1000DE008E3120004818902E26006411922E8D
:101D20002600641564146419D11C64105E088D319A
:101D30006B258E3120004818A02E26006412A22E9A
:101D400026006416641E6410E41464176418E41C0E
:101D50006413641FC92E883183202600E2008E316F
:101D600020004818B62E2600E413B82E2600E417EB
:101D7000E41FC72E62088D316B258E312000481874
:101D8000C42E26006410C62E26006414A52EE4106E
:101D9000A52E8D313E258E3126006418D22E2000CE
:101DA000481008002000481408008D3111258831A2
:101DB00083202600DE008E3120004818E22E260007
:101DC000E810E42E2600E8146814E818D11C681006
:101DD00001305E04E6008D316B258E3120004818FD
:101DE000F42E2600E811F62E2600E815E81D6810EE
:101DF00088312520883183202600E2008F312000A1
:101E00004818052F2600E812072F2600E816E81EBE
:101E100068106208E8170319E81369146818E81FC6
:101E20006910691C322FE2036208031D1F2F27006F
:101E300027108D31BC252600E4008F31252F270087
:101E400027148D31BC252600E40064088731B927AA
:101E50008F31200048182F2F26006810312F2600C0
:101E60006814092F8D313E258F31260068183B2FCD
:101E7000200048100800200048140800E800240052
:101E80009100951BFF341418462F432F11080800AA
:101E9000E4003E2FFF303E272600E6000800EA005F
:101EA00024009501941326006A08031D5B2F24006B
:101EB000151214176D2F6A03031D622F24001512CB
:101EC00014136D2F02306A02031D6A2F24001516A9
:101ED00014176D2F2400151614130F3026006C05EF
:101EE0002000C800F030240015052000480424001C
:101EF00095009516080051119031722866148831AA
:101F000083202600DE008F31200048188A2F26000B
:101F1000E6108C2F2600E614E61CA92F5E08031D90
:101F2000932FE201AA2F5E03031D992F0130E200D7
:101F3000A82F02305E02031DA02F0230E200A82F5E
:101F400002305E02031DA72F0330E200A82F6610A7
:101F5000AA2F6610883183202600DE008F312000F2
:101F60004818B52F26006613B72F26006617661F80
:101F7000CD2F5E08031DBE2FE401CE2F5E03031D8F
:101F8000C42F0130E400CC2F02305E02031DCB2FA2
:101F90000230E400CC2F6610CE2F66109031661C04
:101FA00010286C10003089312F2100308931012137
:101FB0008F3120004818DF2F26006711E12F2600FF
:101FC0006715671D66106C14013089312F210130AF
:101FD000893101218F3120004818F12F2600671226
:101FE000F32F26006716671E66106C1002308931C9
:101FF0002F21023089310121903120004818032817
:1020000026006713052826006717671F66106408F7
:10201000EC0062088F314F272600511590311128AE
:102020005111661816282000481008002000481496
:102030000800511D3128883183202600DE009031B0
:102040002000481826282600E21028282600E2143E
:10205000E21C2F285E088F31482790311B2862141C
:10206000322862106218372820004810080020002B
:1020700048140800883183202600DE0090312000BB
:10208000481845282600E41047282600E414641464
:10209000E418511D64108831252026005E08E415DF
:1020A0000319E41164166418E41D64129031641E6F
:1020B0006A28DE038F314A272600E2008731B927DC
:1020C00090312000481867282600641069282600EF
:1020D00064144D2864186F28200048100800200060
:1020E00048140800D11191314629621488318320A7
:1020F0002600DE0090312000481881282600E210DA
:1021000083282600E214E21CBA285E03031D9E28E1
:1021100020302200980026006C10023089312F21D7
:102120000230893101219031200048189A28260078
:1021300062109C2826006214D115BA2802305E0273
:10214000031DB82810302200980026006C100330C0
:1021500089312F2103308931012190312000481825
:10216000B42826006210B62826006214D115BA28B9
:102170006210D1116218BF2820004810080020000A
:10218000481408002200981708002200981308003D
:10219000883183202600DE00903120004818D328A3
:1021A0002600E210D5282600E2146214E218D11DA0
:1021B00062101F305E02E211031D031CE21562165D
:1021C000E219621C6212621EEB285E08220099006E
:1021D00026006214EC2862106218F12820004810D2
:1021E0000800200048140800EC006C0D2000C80016
:1021F000C80D7C30C805833021001D05200048042F
:1022000021009D00913127002918092921009E13E2
:102210000B2921009E171D1423006F082700A7001B
:10222000A8011A2920002730C8009131C80B1629AF
:102230002700A80A28082702031D122921009D143F
:102240009D1C232920291C082700A10021001B0810
:102250002700A00020002F30C8009131C80B2E2984
:1022600021001D10270020082000C8002700210899
:102270002000C9000800E60027002914260066088F
:102280009031F42815302300EF00080051129231EC
:10229000482AE6006810511A681403306602031DCC
:1022A00062296C14063089312F2106308831D32001
:1022B0009131200048185F29260068106129260006
:1022C0006814B72904306602031D77296C140030A6
:1022D00089312F2100308831D320913120004818D6
:1022E000742926006810762926006814B72905305D
:1022F0006602031D8C296C14013089312F210130B5
:102300008831D3209131200048188929260068108F
:102310008B2926006814B72906306602031DA129FF
:102320006C14023089312F2102308831D320913151
:10233000200048189E2926006810A029260068144D
:10234000B72907306602031DB6296C1403308931A2
:102350002F2103308831D320913120004818B32930
:1023600026006810B52926006814B7296810681877
:10237000BC29200048100800200048140800641000
:10238000883183202600E200913120004818CB29B3
:102390002600E410CD292600E414E41CE12962089B
:1023A0004921913120004818D82926006411DA29E2
:1023B00026006415641DE1296208C8006410511AE2
:1023C00064146418E629200048100800200048140E
:1023D00008005E105116BF21913120004818F329E2
:1023E0002600DE10F5292600DE149231DE1C052AB7
:1023F000FC3021009E058F301E0570389E00913103
:10240000422126005E149231062A51125E180B2AD0
:1024100020004810080020004814080021001D1466
:10242000080021001D100800511E3F2A8831252078
:102430002600480891313B21200048082600DE0094
:10244000200049082600DF005F088731B927923154
:10245000200048182E2A26006410302A2600641412
:102460005E088731B9279231200048183A2A2600A1
:1024700064113C2A26006415641D6410402A64100F
:102480006418452A2000481008002000481408005D
:10249000F4010130F5009331242BE400F401013004
:1024A000F500740320009B0026006403031D5D2AD1
:1024B000FC3020009C051C15080004306402031D3C
:1024C000682AFC3020001C0501389C001C150800FF
:1024D00010306402031D732AFC3020001C050238F2
:1024E0009C001C15080040306402031D7E2AFC304D
:1024F00020001C0503389C001C15080020001C113E
:10250000080029082000D30027002A082000D40052
:1025100027002B082000D50027002C082000D6001B
:10252000CB016C30CC00DC30CD000230CE008131EC
:102530007421200057082700B10020005808270008
:10254000B2000310320CB500310CB4000310B50C0E
:10255000B40C20009C0127003408350436140319FC
:102560003610403035029231031DB82A0030340253
:10257000B610031D031CB61436153618B61C3611DA
:102580009331361D232B013035029231031DCA2AA7
:10259000003034020319CE2A0318D72A3408F40075
:1025A0003508F500FC3020009C059331202B0430C9
:1025B0003502031DDD2A003034020319E12A031815
:1025C000F02A0310350CF500340CF4000310F50C60
:1025D000F40CFC3020001C0501389C009331202BAA
:1025E00010303502031DF62A003034020319FB2A8D
:1025F000933103180F2B0310350CF500340CF40045
:1026000003302000C8000310F50CF40C9331C80B04
:10261000032BFC301C0502389C009331202B031047
:10262000350CF500340CF40005302000C800031010
:10263000F50CF40CC80B172BFC301C0503389C0060
:1026400074039B001C150800C901CA01BF2B49086F
:102650002C00920026004A082C00910013179317B3
:1026600008002C009313080003302F02031D3A2B9F
:10267000FF302E020319422B031C422BFF30AE0009
:102680000330AF0003102F0C2000C90027002E0CD0
:102690002000C8000310C90CC80C48082600C90057
:1026A00027002E0C2600CA00CA0C4A0CC039CA00EA
:1026B000272B2600E8006808031D612BEA01EB01C7
:1026C000AE2B643068020319672B031C6F2B75084F
:1026D000EB007403EA006A0A0319EB03AE2B6808E7
:1026E0002700A000A1010310750CA300740CA20028
:1026F0000310A30CA20C20082000CB002700210807
:102700002000CC00270022082000CD00270023084D
:102710002000CE008131632120004F082700A40053
:10272000200050082700A50019302000D300D40154
:10273000D501D601270024082000CB00270025085A
:102740002000CC00CD01CE0181317421200057083A
:102750002600EA00200058082600EB0003106A0D4E
:102760002700A00026006B0D2700A1000310A00D7C
:10277000A10D2008AE002108AF009331342BCB010E
:10278000CC0194315D2C4B082C00950026004C08A0
:102790002C0094001617961708002C0096130800BA
:1027A00003302F02031DD62BFF302E020319DE2B20
:1027B000031CDE2BFF30AE000330AF0003102F0CE4
:1027C0002000C90027002E0C2000C8000310C90CEF
:1027D000C80C48082600CB0027002E0C2600CC0091
:1027E000CC0C4C0CC039CC00C32BE8006808031D8E
:1027F000FD2BEA01EB0194314C2C643068029431DA
:102800000319052C9431031C0D2C7508EB0074037F
:10281000EA006A0A0319EB034C2C68082700A000A1
:10282000A1010310750CA300740CA2000310A30CEB
:10283000A20C20082000CB00270021082000CC009B
:10284000270022082000CD00270023082000CE000A
:102850008131632120004F082700A4002000500888
:102860002700A50019302000D300D401D501D601DE
:10287000270024082000CB00270025082000CC00DA
:10288000CD01CE0181317421200057082600EA00D5
:10289000200058082600EB0003106A0D2700A00056
:1028A00026006B0D2700A1000310A00DA10D20082C
:1028B000AE002108AF009331D02BD11296312A2ED1
:1028C0006210883183202600DE00943120004818F1
:1028D0006C2C2600E2106E2C2600E214E21CA52CC3
:1028E0005E03031D862C9331312326006C100530C6
:1028F00089312F213230933159232600D1160130EE
:1029000092314D22260062149431A52C02305E02D1
:10291000031DA52C9331CD2326006C100330893183
:102920002F210330893101219431200048189B2C3C
:10293000260062109D2C2600621432309331F5235C
:102940002600D116013092314D22943126006218B2
:10295000AC2C200048100800200048140800DE01BC
:10296000DF01E001E101D11AB82C27002810BA2CB0
:10297000270028142600EA016008E1005F08E00053
:102980005E08DF00DE01883183202600E8009431F4
:1029900020004818CE2C2700A810D02C2700A814FF
:1029A000A81C281026006808EC00ED01EE01EF01DC
:1029B0006C08DE046D08DF046E08E0046F08E104B3
:1029C000EA0A02306A02031DBC2C00306102031DBA
:1029D000F32C00306002031DF32C02305F02031D54
:1029E000F32CEE305E0227002812031D0318281670
:1029F0000030260061029531031D082D0030600271
:102A0000031D082DAF305F02031D082DC8305E0284
:102A10002700A812031D031CA8162817281AA81E91
:102A20002813A817281B281CA813A81F2B2D260025
:102A30005E082700A90026005F082700AA002600DC
:102A400060082700AB00260061082700AC00923127
:102A5000812295312C2D281027002818322D200096
:102A60004810080020004814080088318320260000
:102A7000E200953120004818402D2600E410422D38
:102A80002600E4146414E418D11E641088318320F5
:102A90002600DE00953120004818512D2600E41153
:102AA000532D2600E415E41D641064305E02E41228
:102AB000031D031CE41664176418E41E6413641FEA
:102AC000882D6203031D6E2D6C10053089312F2176
:102AD00026005E08933159239531882D0230620219
:102AE000031D872D6C10033089312F21033089316C
:102AF0000121953120004818802D26006410822D78
:102B0000260064145E089331F5239531882D6410F6
:102B1000260064188E2D200048100800200048145C
:102B200008006210D11A6214883183202600DE006A
:102B30009531200048189F2D2600E210A12D260077
:102B4000E214E21CB42D5E03031DAC2D9331272348
:102B5000260062149531B42D02305E02031DB42D9F
:102B60009331C3232600621495316218BA2D2000D8
:102B7000481008002000481408006210D11A62149E
:102B8000883183202600DE00953120004818CB2DA7
:102B90002600E210CD2D2600E214E21CE02D5E039B
:102BA000031DD82D93313123260062149531E02D79
:102BB00002305E02031DE02D9331CD232600621406
:102BC00095316218E62D20004810080020004814B6
:102BD00008000D30873130270A308731302F26002A
:102BE000DE00873130279531E92588312120260004
:102BF0005113CF0108003F30873130278731F92743
:102C00002600CD00963120004818092E26006410B9
:102C10000B2E26006414641C222E4D0E0F39DE008C
:102C2000873184272600DF00873130270F302600C8
:102C30004D05DE00873184272600DF0087313027ED
:102C40009531FE2D9531E92D883121202600CF01C7
:102C50005113080023008C018E0121009D019E016B
:102C60009F010430220091009201043093009401EE
:102C70008631DE269631242626004F089931031D21
:102C80005F29511F19290430DE00DF012930E400DB
:102C90000130E50088312920963120004818532E54
:102CA00026005210552E26005214521C5A2E1D304A
:102CB000CF003C2E0530DE00DF01B430E4000030F0
:102CC000E500883129209631200048186A2E260018
:102CD000D2106C2E2600D214D21C722E1E30CF00C1
:102CE000993117290430DE00DF012430E40001307F
:102CF000E50088312920963120004818822E2600D0
:102D00005211842E26005215521D8A2E0130CF00FA
:102D1000993117290430DE00DF011A30E400013058
:102D2000E500883129209631200048189A2E260087
:102D3000D2119C2E2600D215D21DA22E0230CF0019
:102D4000993117290430DE00DF011530E40001302D
:102D5000E50088312920963120004818B22E26003F
:102D60005212B42E26005216521EBA2E0330CF0035
:102D7000993117290430DE00DF011030E400013002
:102D8000E50088312920963120004818CA2E2600F7
:102D9000D212CC2E2600D216D21ED22E0430CF0054
:102DA000993117290430DE00DF010B30E4000130D7
:102DB000E50088312920963120004818E22E2600AF
:102DC0005213E42E26005217521FEA2E0530CF0070
:102DD000993117290430DE00DF010630E4000130AC
:102DE000E50088312920963120004818FA2E260067
:102DF000D213FC2E2600D2179731D21F032F063094
:102E0000CF00993117290430DE00DF010130E400E2
:102E10000130E50088312920973120004818132F10
:102E200026005310152F26005314531C1B2F073058
:102E3000CF00993117290430DE00DF01FC30E400B7
:102E40000030E500883129209731200048182B2FC9
:102E50002600D3102D2F2600D314D31C332F083077
:102E6000CF00993117290530DE00DF01D230E400B0
:102E70000030E50088312920973120004818432F81
:102E800026005311452F26005315531D4B2F093093
:102E9000CF00993117290530DE00DF01D830E4007A
:102EA0000030E500883129209731200048185B2F39
:102EB0002600D3115D2F2600D315D31D632F0A30B2
:102EC000CF00993117290530DE00DF01DE30E40044
:102ED0000030E50088312920973120004818732FF1
:102EE00026005312752F26005316531E7B2F0B30CE
:102EF000CF00993117290530DE00DF01E430E4000E
:102F00000030E500883129209731200048188B2FA8
:102F10002600D3128D2F2600D316D31E932F0C30EC
:102F2000CF00993117290530DE00DF01EA30E400D7
:102F30000030E50088312920973120004818A32F60
:102F400026005313A52F26005317531FAB2F0D3008
:102F5000CF00993117290530DE00DF01F030E400A1
:102F60000030E50088312920973120004818BB2F18
:102F70002600D313BD2F2600D317D31FC32F0E3027
:102F8000CF00993117290530DE00DF01F630E4006B
:102F90000030E50088312920973120004818D32FD0
:102FA00026005410D52F26005414541CDB2F0F304C
:102FB000CF00993117290530DE00DF012E30E40003
:102FC0000130E50088312920973120004818EB2F87
:102FD0002600D410ED2F2600D414D41CF32F10306B
:102FE000CF00993117290530DE00DF013430E400CD
:102FF0000130E50088312920983120004818042844
:103000002600541198310628260054159831541D75
:103010000D281130CF00993117290530DE00DF016E
:103020003A30E4000130E500883129209831200051
:1030300048181D282600D4111F282600D415D41D99
:1030400025281230CF00993117290530DE00DF0125
:103050004030E4000130E50088312920983120001B
:103060004818352826005412372826005416541EB6
:103070003D281330CF00993117290530DE00DF01DC
:103080004630E4000130E5008831292098312000E5
:1030900048184D282600D4124F282600D416D41ED6
:1030A00055281430CF00993117290530DE00DF0193
:1030B0004C30E4000130E5008831292098312000AF
:1030C0004818652826005413672826005417541FF3
:1030D0006D281530CF00993117290530DE00DF014A
:1030E0005230E4000130E500883129209831200079
:1030F00048187D282600D4137F282600D417D41F13
:1031000085281630CF00993117290530DE00DF0100
:103110005830E4000130E500883129209831200042
:103120004818952826005510972826005514551C38
:103130009D281730CF00993117290530DE00DF01B7
:103140005E30E4000130E50088312920983120000C
:103150004818AD282600D510AF282600D514D51C58
:10316000B5281830CF00993117290530DE00DF016E
:10317000CC30E4000030E50088312920983120006F
:103180004818C52826005511C72826005515551D75
:10319000CD281930CF00993117290530DE00DF0125
:1031A000C630E4000030E500883129209831200045
:1031B0004818DD282600D511DF282600D515D51D95
:1031C000E5281A30CF00993117290530DE00DF01DC
:1031D000C030E4000030E50088312920983120001B
:1031E0004818F52826005512F72826005516551EB2
:1031F000FD281B30CF00993117290530DE00DF0193
:10320000BA30E4000030E5008831292099312000EF
:1032100048180D292600D5120F292600D516D51ECF
:1032200014291C30CF00172932309531EF25963103
:103230003C2E87312C272600CE00993120004818DB
:103240002429260055132629260055179631551F87
:103250003C2E20304E029931031D302996313C2EF0
:103260000D304E025610031956140A304E02D61075
:103270000319D6145611561CD6185615561D4B292F
:1032800088311B202600D0005008993103195D2990
:10329000511796313C2E4E088731932799312000E3
:1032A00048185529260056125729260056169631D9
:1032B000561A3C2E31309531EF2596313C2E1D307B
:1032C0004F02031D792930309531EF252000EE3073
:1032D000C8004930C9001530CA009931CA0B6E299F
:1032E0009931C90B6B299931C80B6929000000007D
:1032F00001001E304F02031D822930309531EF2529
:1033000096313C2E4F03031D9C298931ED219931C3
:10331000200048188E292600D71090292600D7149F
:10332000D71C972930309531EF259C31472C31300F
:103330009531EF2596313C2E02304F02031DB729FF
:103340008A313622993120004818A9292600D71140
:10335000AB292600D715D71DB22930309531EF257E
:1033600096313C2E31309531EF2596313C2E03308D
:103370004F02031DD2298A31822299312000481838
:10338000C4292600D712C6292600D716D71ECD2954
:1033900030309531EF2596313C2E31309531EF2587
:1033A00096313C2E04304F02031DED298A31DE2276
:1033B000993120004818DF292600D713E12926007B
:1033C000D717D71FE82930309531EF2596313C2E9D
:1033D00031309531EF2596313C2E05304F029A3130
:1033E000031D0C2A8B312923993120004818FB2911
:1033F0002600D810FD292600D8149A31D81C072A97
:1034000030309531EF259531FB2596313C2E31300A
:103410009531EF2596313C2E06304F029A31031D2F
:10342000282A8C3112249A31200048181A2A2600A2
:10343000D8111C2A2600D815D81D232A30309531E2
:10344000EF2596313C2E31309531EF2596313C2ECB
:1034500007304F02031D432A8C3142249A31200049
:103460004818352A2600D812372A2600D816D81E22
:103470003E2A30309531EF2596313C2E3130953152
:10348000EF2596313C2E08304F02031D602A8C3107
:1034900072249A3120004818502A2600D813522A44
:1034A0002600D817D81F5B2A30309531EF2595318B
:1034B000FB2596313C2E31309531EF2596313C2E4F
:1034C00009304F02031D7B2A8E311E269A312000BF
:1034D00048186D2A2600D9106F2A2600D914D91C45
:1034E000762A30309531EF2596313C2E31309531AA
:1034F000EF2596313C2E0A304F02031D962A8E315D
:1035000083269A3120004818882A2600D9118A2A51
:103510002600D915D91D912A30309531EF259631E5
:103520003C2E31309531EF2596313C2E0B304F0239
:10353000031DB32A8E31D5269A3120004818A32ABC
:103540002600D912A52A2600D916D91EAE2A303057
:103550009531EF259531FB2596313C2E3130953153
:10356000EF2596313C2E0C304F02031DCE2A9031B0
:1035700075209A3120004818C02A2600D913C22A83
:103580002600D917D91FC92A30309531EF25963139
:103590003C2E31309531EF2596313C2E0D304F02C7
:1035A000031DD92A9031C22030309531EF25963154
:1035B0003C2E0E304F02031DE42A9031C5203030DE
:1035C0009531EF259C31472C0F304F02031DFF2A08
:1035D0009031C8209A3120004818F12A2600DA11CB
:1035E000F32A2600DA15DA1DFA2A30309531EF2554
:1035F0009C31472C31309531EF2596313C2E1030DF
:103600004F029B31031D1B2B8F317E279B312000E6
:1036100048180D2B2600DA120F2B2600DA16DA1EB8
:10362000162B30309531EF2596313C2E31309531C7
:10363000EF2596313C2E11304F02031D362B903171
:1036400019209B3120004818282B2600DA132A2B3A
:103650002600DA17DA1F312B30309531EF259631FD
:103660003C2E31309531EF2596313C2E12304F02F1
:10367000031D532B90313A209B3120004818432BD7
:103680002600DB10452B2600DB14DB1C4E2B3030D4
:103690009531EF259531FB2596313C2E3130953112
:1036A000EF2596313C2E13304F02031D6E2B9131C6
:1036B000E9219B3120004818602B2600DB11622B8A
:1036C0002600DB15DB1D692B30309531EF25963157
:1036D0003C2E31309531EF2596313C2E14304F027F
:1036E000031D792B92310E2230309531EF25963122
:1036F0003C2E15304F02031D842B923111223030A5
:103700009531EF259C31472C16304F02031DA12B1C
:10371000923114229B3120004818912B2600DB1394
:10372000932B2600DB17DB1F9C2B30309531EF25C8
:103730009531FB259C31472C31309531EF25963161
:103740003C2E17304F02031DBC2B9131BF219B3102
:1037500020004818AE2B2600DC10B02B2600DC140D
:10376000DC1CB72B30309531EF2596313C2E3130B3
:103770009531EF2596313C2E18304F02031DD72B83
:10378000943160249B3120004818C92B2600DC119D
:10379000CB2B2600DC15DC1DD22B30309531EF25EC
:1037A00096313C2E31309531EF2596313C2E193033
:1037B0004F02031DF22B953191259B3120004818B3
:1037C000E42B2600DC12E62B2600DC16DC1EED2B9B
:1037D00030309531EF2596313C2E31309531EF2543
:1037E00096313C2E1A304F029C31031D102C95311E
:1037F000BD259C3120004818012C2600DC139C318B
:10380000032C2600DC179C31DC1F0B2C303095314B
:10381000EF2596313C2E31309531EF2596313C2EF7
:103820001B304F02031D2B2C9431AF249C31200000
:1038300048181D2C2600DD101F2C2600DD14DD1C71
:10384000262C30309531EF2596313C2E3130953194
:10385000EF2596313C2E1C304F029631031D3C2E35
:10386000953135259C3120004818392C2600DD1172
:103870003B2C2600DD15DD1D422C30309531EF2527
:103880009C31472C31309531EF2596313C2E9631C5
:023890003C2ECC
:020000040001F9
:02000E00A40943
:02001000CF3BE4
:00000001FF
